{
  "_format": "hh-sol-artifact-1",
  "contractName": "Domains",
  "sourceName": "contracts/Domains.sol",
  "abi": [
    {
      "inputs": [
        {
          "internalType": "string",
          "name": "_tld",
          "type": "string"
        }
      ],
      "stateMutability": "payable",
      "type": "constructor"
    },
    {
      "anonymous": false,
      "inputs": [
        {
          "indexed": true,
          "internalType": "address",
          "name": "owner",
          "type": "address"
        },
        {
          "indexed": true,
          "internalType": "address",
          "name": "approved",
          "type": "address"
        },
        {
          "indexed": true,
          "internalType": "uint256",
          "name": "tokenId",
          "type": "uint256"
        }
      ],
      "name": "Approval",
      "type": "event"
    },
    {
      "anonymous": false,
      "inputs": [
        {
          "indexed": true,
          "internalType": "address",
          "name": "owner",
          "type": "address"
        },
        {
          "indexed": true,
          "internalType": "address",
          "name": "operator",
          "type": "address"
        },
        {
          "indexed": false,
          "internalType": "bool",
          "name": "approved",
          "type": "bool"
        }
      ],
      "name": "ApprovalForAll",
      "type": "event"
    },
    {
      "anonymous": false,
      "inputs": [
        {
          "indexed": true,
          "internalType": "address",
          "name": "from",
          "type": "address"
        },
        {
          "indexed": true,
          "internalType": "address",
          "name": "to",
          "type": "address"
        },
        {
          "indexed": true,
          "internalType": "uint256",
          "name": "tokenId",
          "type": "uint256"
        }
      ],
      "name": "Transfer",
      "type": "event"
    },
    {
      "inputs": [
        {
          "internalType": "address",
          "name": "to",
          "type": "address"
        },
        {
          "internalType": "uint256",
          "name": "tokenId",
          "type": "uint256"
        }
      ],
      "name": "approve",
      "outputs": [],
      "stateMutability": "nonpayable",
      "type": "function"
    },
    {
      "inputs": [
        {
          "internalType": "address",
          "name": "owner",
          "type": "address"
        }
      ],
      "name": "balanceOf",
      "outputs": [
        {
          "internalType": "uint256",
          "name": "",
          "type": "uint256"
        }
      ],
      "stateMutability": "view",
      "type": "function"
    },
    {
      "inputs": [
        {
          "internalType": "string",
          "name": "",
          "type": "string"
        }
      ],
      "name": "domains",
      "outputs": [
        {
          "internalType": "address",
          "name": "",
          "type": "address"
        }
      ],
      "stateMutability": "view",
      "type": "function"
    },
    {
      "inputs": [
        {
          "internalType": "string",
          "name": "name",
          "type": "string"
        }
      ],
      "name": "getAddress",
      "outputs": [
        {
          "internalType": "address",
          "name": "",
          "type": "address"
        }
      ],
      "stateMutability": "view",
      "type": "function"
    },
    {
      "inputs": [
        {
          "internalType": "uint256",
          "name": "tokenId",
          "type": "uint256"
        }
      ],
      "name": "getApproved",
      "outputs": [
        {
          "internalType": "address",
          "name": "",
          "type": "address"
        }
      ],
      "stateMutability": "view",
      "type": "function"
    },
    {
      "inputs": [
        {
          "internalType": "string",
          "name": "name",
          "type": "string"
        }
      ],
      "name": "getRecord",
      "outputs": [
        {
          "internalType": "string",
          "name": "",
          "type": "string"
        }
      ],
      "stateMutability": "view",
      "type": "function"
    },
    {
      "inputs": [
        {
          "internalType": "address",
          "name": "owner",
          "type": "address"
        },
        {
          "internalType": "address",
          "name": "operator",
          "type": "address"
        }
      ],
      "name": "isApprovedForAll",
      "outputs": [
        {
          "internalType": "bool",
          "name": "",
          "type": "bool"
        }
      ],
      "stateMutability": "view",
      "type": "function"
    },
    {
      "inputs": [],
      "name": "name",
      "outputs": [
        {
          "internalType": "string",
          "name": "",
          "type": "string"
        }
      ],
      "stateMutability": "view",
      "type": "function"
    },
    {
      "inputs": [
        {
          "internalType": "uint256",
          "name": "tokenId",
          "type": "uint256"
        }
      ],
      "name": "ownerOf",
      "outputs": [
        {
          "internalType": "address",
          "name": "",
          "type": "address"
        }
      ],
      "stateMutability": "view",
      "type": "function"
    },
    {
      "inputs": [
        {
          "internalType": "string",
          "name": "name",
          "type": "string"
        }
      ],
      "name": "price",
      "outputs": [
        {
          "internalType": "uint256",
          "name": "",
          "type": "uint256"
        }
      ],
      "stateMutability": "pure",
      "type": "function"
    },
    {
      "inputs": [
        {
          "internalType": "string",
          "name": "",
          "type": "string"
        }
      ],
      "name": "records",
      "outputs": [
        {
          "internalType": "string",
          "name": "",
          "type": "string"
        }
      ],
      "stateMutability": "view",
      "type": "function"
    },
    {
      "inputs": [
        {
          "internalType": "string",
          "name": "name",
          "type": "string"
        }
      ],
      "name": "register",
      "outputs": [],
      "stateMutability": "payable",
      "type": "function"
    },
    {
      "inputs": [
        {
          "internalType": "address",
          "name": "from",
          "type": "address"
        },
        {
          "internalType": "address",
          "name": "to",
          "type": "address"
        },
        {
          "internalType": "uint256",
          "name": "tokenId",
          "type": "uint256"
        }
      ],
      "name": "safeTransferFrom",
      "outputs": [],
      "stateMutability": "nonpayable",
      "type": "function"
    },
    {
      "inputs": [
        {
          "internalType": "address",
          "name": "from",
          "type": "address"
        },
        {
          "internalType": "address",
          "name": "to",
          "type": "address"
        },
        {
          "internalType": "uint256",
          "name": "tokenId",
          "type": "uint256"
        },
        {
          "internalType": "bytes",
          "name": "_data",
          "type": "bytes"
        }
      ],
      "name": "safeTransferFrom",
      "outputs": [],
      "stateMutability": "nonpayable",
      "type": "function"
    },
    {
      "inputs": [
        {
          "internalType": "address",
          "name": "operator",
          "type": "address"
        },
        {
          "internalType": "bool",
          "name": "approved",
          "type": "bool"
        }
      ],
      "name": "setApprovalForAll",
      "outputs": [],
      "stateMutability": "nonpayable",
      "type": "function"
    },
    {
      "inputs": [
        {
          "internalType": "string",
          "name": "name",
          "type": "string"
        },
        {
          "internalType": "string",
          "name": "record",
          "type": "string"
        }
      ],
      "name": "setRecord",
      "outputs": [],
      "stateMutability": "nonpayable",
      "type": "function"
    },
    {
      "inputs": [
        {
          "internalType": "bytes4",
          "name": "interfaceId",
          "type": "bytes4"
        }
      ],
      "name": "supportsInterface",
      "outputs": [
        {
          "internalType": "bool",
          "name": "",
          "type": "bool"
        }
      ],
      "stateMutability": "view",
      "type": "function"
    },
    {
      "inputs": [],
      "name": "symbol",
      "outputs": [
        {
          "internalType": "string",
          "name": "",
          "type": "string"
        }
      ],
      "stateMutability": "view",
      "type": "function"
    },
    {
      "inputs": [],
      "name": "tld",
      "outputs": [
        {
          "internalType": "string",
          "name": "",
          "type": "string"
        }
      ],
      "stateMutability": "view",
      "type": "function"
    },
    {
      "inputs": [
        {
          "internalType": "uint256",
          "name": "tokenId",
          "type": "uint256"
        }
      ],
      "name": "tokenURI",
      "outputs": [
        {
          "internalType": "string",
          "name": "",
          "type": "string"
        }
      ],
      "stateMutability": "view",
      "type": "function"
    },
    {
      "inputs": [
        {
          "internalType": "address",
          "name": "from",
          "type": "address"
        },
        {
          "internalType": "address",
          "name": "to",
          "type": "address"
        },
        {
          "internalType": "uint256",
          "name": "tokenId",
          "type": "uint256"
        }
      ],
      "name": "transferFrom",
      "outputs": [],
      "stateMutability": "nonpayable",
      "type": "function"
    }
  ],
  "bytecode": "0x6080604052604051806108a0016040528061086b81526020016200489861086b9139600b90805190602001906200003892919062000287565b506040518060400160405280600d81526020017f3c2f746578743e3c2f7376673e00000000000000000000000000000000000000815250600c90805190602001906200008692919062000287565b5060405162005103380380620051038339818101604052810190620000ac9190620004d4565b6040518060400160405280601281526020017f4372656564204e616d65205365727669636500000000000000000000000000008152506040518060400160405280600381526020017f434e53000000000000000000000000000000000000000000000000000000000081525081600090805190602001906200013092919062000287565b5080600190805190602001906200014992919062000287565b50505080600a90805190602001906200016492919062000287565b50620001b16040518060400160405280601881526020017f2573206e616d652073657276696365206465706c6f796564000000000000000081525082620001b860201b620014811760201c565b5062000622565b6200025a8282604051602401620001d192919062000582565b6040516020818303038152906040527f4b5c4277000000000000000000000000000000000000000000000000000000007bffffffffffffffffffffffffffffffffffffffffffffffffffffffff19166020820180517bffffffffffffffffffffffffffffffffffffffffffffffffffffffff83818316178352505050506200025e60201b60201c565b5050565b60008151905060006a636f6e736f6c652e6c6f679050602083016000808483855afa5050505050565b8280546200029590620005ec565b90600052602060002090601f016020900481019282620002b9576000855562000305565b82601f10620002d457805160ff191683800117855562000305565b8280016001018555821562000305579182015b8281111562000304578251825591602001919060010190620002e7565b5b50905062000314919062000318565b5090565b5b808211156200033357600081600090555060010162000319565b5090565b6000604051905090565b600080fd5b600080fd5b600080fd5b600080fd5b6000601f19601f8301169050919050565b7f4e487b7100000000000000000000000000000000000000000000000000000000600052604160045260246000fd5b620003a08262000355565b810181811067ffffffffffffffff82111715620003c257620003c162000366565b5b80604052505050565b6000620003d762000337565b9050620003e5828262000395565b919050565b600067ffffffffffffffff82111562000408576200040762000366565b5b620004138262000355565b9050602081019050919050565b60005b838110156200044057808201518184015260208101905062000423565b8381111562000450576000848401525b50505050565b60006200046d6200046784620003ea565b620003cb565b9050828152602081018484840111156200048c576200048b62000350565b5b6200049984828562000420565b509392505050565b600082601f830112620004b957620004b86200034b565b5b8151620004cb84826020860162000456565b91505092915050565b600060208284031215620004ed57620004ec62000341565b5b600082015167ffffffffffffffff8111156200050e576200050d62000346565b5b6200051c84828501620004a1565b91505092915050565b600081519050919050565b600082825260208201905092915050565b60006200054e8262000525565b6200055a818562000530565b93506200056c81856020860162000420565b620005778162000355565b840191505092915050565b600060408201905081810360008301526200059e818562000541565b90508181036020830152620005b4818462000541565b90509392505050565b7f4e487b7100000000000000000000000000000000000000000000000000000000600052602260045260246000fd5b600060028204905060018216806200060557607f821691505b602082108114156200061c576200061b620005bd565b5b50919050565b61426680620006326000396000f3fe60806040526004361061012a5760003560e01c80636352211e116100ab578063bf40fac11161006f578063bf40fac114610428578063c1880a9814610465578063c87b56dd1461048e578063e985e9c5146104cb578063f2c298be14610508578063fe2c6198146105245761012a565b80636352211e1461033157806370a082311461036e57806395d89b41146103ab578063a22cb465146103d6578063b88d4fde146103ff5761012a565b806323b872dd116100f257806323b872dd1461023a57806326449235146102635780632d551432146102a057806342842e0e146102cb578063541e771d146102f45761012a565b806301ffc9a71461012f57806306fdde031461016c578063081812fc14610197578063095ea7b3146101d457806311dd8845146101fd575b600080fd5b34801561013b57600080fd5b50610156600480360381019061015191906128c4565b610561565b604051610163919061290c565b60405180910390f35b34801561017857600080fd5b50610181610643565b60405161018e91906129c0565b60405180910390f35b3480156101a357600080fd5b506101be60048036038101906101b99190612a18565b6106d5565b6040516101cb9190612a86565b60405180910390f35b3480156101e057600080fd5b506101fb60048036038101906101f69190612acd565b61075a565b005b34801561020957600080fd5b50610224600480360381019061021f9190612b72565b610872565b60405161023191906129c0565b60405180910390f35b34801561024657600080fd5b50610261600480360381019061025c9190612bbf565b610925565b005b34801561026f57600080fd5b5061028a60048036038101906102859190612d42565b610985565b6040516102979190612a86565b60405180910390f35b3480156102ac57600080fd5b506102b56109ce565b6040516102c291906129c0565b60405180910390f35b3480156102d757600080fd5b506102f260048036038101906102ed9190612bbf565b610a5c565b005b34801561030057600080fd5b5061031b60048036038101906103169190612d42565b610a7c565b60405161032891906129c0565b60405180910390f35b34801561033d57600080fd5b5061035860048036038101906103539190612a18565b610b32565b6040516103659190612a86565b60405180910390f35b34801561037a57600080fd5b5061039560048036038101906103909190612d8b565b610be4565b6040516103a29190612dc7565b60405180910390f35b3480156103b757600080fd5b506103c0610c9c565b6040516103cd91906129c0565b60405180910390f35b3480156103e257600080fd5b506103fd60048036038101906103f89190612e0e565b610d2e565b005b34801561040b57600080fd5b5061042660048036038101906104219190612eef565b610d44565b005b34801561043457600080fd5b5061044f600480360381019061044a9190612b72565b610da6565b60405161045c9190612a86565b60405180910390f35b34801561047157600080fd5b5061048c60048036038101906104879190612f72565b610df1565b005b34801561049a57600080fd5b506104b560048036038101906104b09190612a18565b610e9f565b6040516104c291906129c0565b60405180910390f35b3480156104d757600080fd5b506104f260048036038101906104ed9190612ff3565b610ff1565b6040516104ff919061290c565b60405180910390f35b610522600480360381019061051d9190612b72565b611085565b005b34801561053057600080fd5b5061054b60048036038101906105469190612b72565b6113db565b6040516105589190612dc7565b60405180910390f35b60007f80ac58cd000000000000000000000000000000000000000000000000000000007bffffffffffffffffffffffffffffffffffffffffffffffffffffffff1916827bffffffffffffffffffffffffffffffffffffffffffffffffffffffff1916148061062c57507f5b5e139f000000000000000000000000000000000000000000000000000000007bffffffffffffffffffffffffffffffffffffffffffffffffffffffff1916827bffffffffffffffffffffffffffffffffffffffffffffffffffffffff1916145b8061063c575061063b8261151d565b5b9050919050565b60606000805461065290613062565b80601f016020809104026020016040519081016040528092919081815260200182805461067e90613062565b80156106cb5780601f106106a0576101008083540402835291602001916106cb565b820191906000526020600020905b8154815290600101906020018083116106ae57829003601f168201915b5050505050905090565b60006106e082611587565b61071f576040517f08c379a000000000000000000000000000000000000000000000000000000000815260040161071690613106565b60405180910390fd5b6004600083815260200190815260200160002060009054906101000a900473ffffffffffffffffffffffffffffffffffffffff169050919050565b600061076582610b32565b90508073ffffffffffffffffffffffffffffffffffffffff168373ffffffffffffffffffffffffffffffffffffffff1614156107d6576040517f08c379a00000000000000000000000000000000000000000000000000000000081526004016107cd90613198565b60405180910390fd5b8073ffffffffffffffffffffffffffffffffffffffff166107f56115f3565b73ffffffffffffffffffffffffffffffffffffffff16148061082457506108238161081e6115f3565b610ff1565b5b610863576040517f08c379a000000000000000000000000000000000000000000000000000000000815260040161085a9061322a565b60405180910390fd5b61086d83836115fb565b505050565b60606009838360405161088692919061327a565b9081526020016040518091039020805461089f90613062565b80601f01602080910402602001604051908101604052809291908181526020018280546108cb90613062565b80156109185780601f106108ed57610100808354040283529160200191610918565b820191906000526020600020905b8154815290600101906020018083116108fb57829003601f168201915b5050505050905092915050565b6109366109306115f3565b826116b4565b610975576040517f08c379a000000000000000000000000000000000000000000000000000000000815260040161096c90613305565b60405180910390fd5b610980838383611792565b505050565b6008818051602081018201805184825260208301602085012081835280955050505050506000915054906101000a900473ffffffffffffffffffffffffffffffffffffffff1681565b600a80546109db90613062565b80601f0160208091040260200160405190810160405280929190818152602001828054610a0790613062565b8015610a545780601f10610a2957610100808354040283529160200191610a54565b820191906000526020600020905b815481529060010190602001808311610a3757829003601f168201915b505050505081565b610a7783838360405180602001604052806000815250610d44565b505050565b6009818051602081018201805184825260208301602085012081835280955050505050506000915090508054610ab190613062565b80601f0160208091040260200160405190810160405280929190818152602001828054610add90613062565b8015610b2a5780601f10610aff57610100808354040283529160200191610b2a565b820191906000526020600020905b815481529060010190602001808311610b0d57829003601f168201915b505050505081565b6000806002600084815260200190815260200160002060009054906101000a900473ffffffffffffffffffffffffffffffffffffffff169050600073ffffffffffffffffffffffffffffffffffffffff168173ffffffffffffffffffffffffffffffffffffffff161415610bdb576040517f08c379a0000000000000000000000000000000000000000000000000000000008152600401610bd290613397565b60405180910390fd5b80915050919050565b60008073ffffffffffffffffffffffffffffffffffffffff168273ffffffffffffffffffffffffffffffffffffffff161415610c55576040517f08c379a0000000000000000000000000000000000000000000000000000000008152600401610c4c90613429565b60405180910390fd5b600360008373ffffffffffffffffffffffffffffffffffffffff1673ffffffffffffffffffffffffffffffffffffffff168152602001908152602001600020549050919050565b606060018054610cab90613062565b80601f0160208091040260200160405190810160405280929190818152602001828054610cd790613062565b8015610d245780601f10610cf957610100808354040283529160200191610d24565b820191906000526020600020905b815481529060010190602001808311610d0757829003601f168201915b5050505050905090565b610d40610d396115f3565b83836119f9565b5050565b610d55610d4f6115f3565b836116b4565b610d94576040517f08c379a0000000000000000000000000000000000000000000000000000000008152600401610d8b90613305565b60405180910390fd5b610da084848484611b66565b50505050565b600060088383604051610dba92919061327a565b908152602001604051809103902060009054906101000a900473ffffffffffffffffffffffffffffffffffffffff16905092915050565b3373ffffffffffffffffffffffffffffffffffffffff1660088585604051610e1a92919061327a565b908152602001604051809103902060009054906101000a900473ffffffffffffffffffffffffffffffffffffffff1673ffffffffffffffffffffffffffffffffffffffff1614610e6957600080fd5b818160098686604051610e7d92919061327a565b90815260200160405180910390209190610e9892919061272f565b5050505050565b6060610eaa82611587565b610ee9576040517f08c379a0000000000000000000000000000000000000000000000000000000008152600401610ee0906134bb565b60405180910390fd5b6000600660008481526020019081526020016000208054610f0990613062565b80601f0160208091040260200160405190810160405280929190818152602001828054610f3590613062565b8015610f825780601f10610f5757610100808354040283529160200191610f82565b820191906000526020600020905b815481529060010190602001808311610f6557829003601f168201915b505050505090506000610f93611bc2565b9050600081511415610fa9578192505050610fec565b600082511115610fde578082604051602001610fc692919061350c565b60405160208183030381529060405292505050610fec565b610fe784611bd9565b925050505b919050565b6000600560008473ffffffffffffffffffffffffffffffffffffffff1673ffffffffffffffffffffffffffffffffffffffff16815260200190815260200160002060008373ffffffffffffffffffffffffffffffffffffffff1673ffffffffffffffffffffffffffffffffffffffff16815260200190815260200160002060009054906101000a900460ff16905092915050565b600073ffffffffffffffffffffffffffffffffffffffff16600883836040516110af92919061327a565b908152602001604051809103902060009054906101000a900473ffffffffffffffffffffffffffffffffffffffff1673ffffffffffffffffffffffffffffffffffffffff16146110fe57600080fd5b600061110a83836113db565b90508034101561114f576040517f08c379a00000000000000000000000000000000000000000000000000000000081526004016111469061357c565b60405180910390fd5b60008383600a6040516020016111679392919061367c565b60405160208183030381529060405290506000600b82600c604051602001611191939291906136ad565b604051602081830303815290604052905060006111ae6007611c80565b905060006111ff87878080601f016020809104026020016040519081016040528093929190818152602001838380828437600081840152601f19601f82011690508083019250505050505050611c8e565b9050600061120c82611e43565b90506112756040518060600160405280602e8152602001614203602e913989898080601f016020809104026020016040519081016040528093929190818152602001838380828437600081840152601f19601f8201169050808301925050505050505085611fa4565b60006112ab8661128487612043565b846040516020016112979392919061385a565b604051602081830303815290604052612043565b90506000816040516020016112c09190613903565b60405160208183030381529060405290506112f2604051806060016040528060398152602001614151603991396121db565b6113316040518060400160405280600e81526020017f46696e616c20746f6b656e55524900000000000000000000000000000000000081525082611481565b61135260405180606001604052806039815260200161418a603991396121db565b61135c3386612274565b6113668582612292565b3360088b8b60405161137992919061327a565b908152602001604051809103902060006101000a81548173ffffffffffffffffffffffffffffffffffffffff021916908373ffffffffffffffffffffffffffffffffffffffff1602179055506113cf6007612306565b50505050505050505050565b60008061142b84848080601f016020809104026020016040519081016040528093929190818152602001838380828437600081840152601f19601f82011690508083019250505050505050611c8e565b90506000811161143a57600080fd5b6003811415611454576706f05b59d3b2000091505061147b565b600481141561146e57670429d069189e000091505061147b565b67016345785d8a00009150505b92915050565b6115198282604051602401611497929190613925565b6040516020818303038152906040527f4b5c4277000000000000000000000000000000000000000000000000000000007bffffffffffffffffffffffffffffffffffffffffffffffffffffffff19166020820180517bffffffffffffffffffffffffffffffffffffffffffffffffffffffff838183161783525050505061231c565b5050565b60007f01ffc9a7000000000000000000000000000000000000000000000000000000007bffffffffffffffffffffffffffffffffffffffffffffffffffffffff1916827bffffffffffffffffffffffffffffffffffffffffffffffffffffffff1916149050919050565b60008073ffffffffffffffffffffffffffffffffffffffff166002600084815260200190815260200160002060009054906101000a900473ffffffffffffffffffffffffffffffffffffffff1673ffffffffffffffffffffffffffffffffffffffff1614159050919050565b600033905090565b816004600083815260200190815260200160002060006101000a81548173ffffffffffffffffffffffffffffffffffffffff021916908373ffffffffffffffffffffffffffffffffffffffff160217905550808273ffffffffffffffffffffffffffffffffffffffff1661166e83610b32565b73ffffffffffffffffffffffffffffffffffffffff167f8c5be1e5ebec7d5bd14f71427d1e84f3dd0314c0f7b2291e5b200ac8c7c3b92560405160405180910390a45050565b60006116bf82611587565b6116fe576040517f08c379a00000000000000000000000000000000000000000000000000000000081526004016116f5906139ce565b60405180910390fd5b600061170983610b32565b90508073ffffffffffffffffffffffffffffffffffffffff168473ffffffffffffffffffffffffffffffffffffffff16148061177857508373ffffffffffffffffffffffffffffffffffffffff16611760846106d5565b73ffffffffffffffffffffffffffffffffffffffff16145b8061178957506117888185610ff1565b5b91505092915050565b8273ffffffffffffffffffffffffffffffffffffffff166117b282610b32565b73ffffffffffffffffffffffffffffffffffffffff1614611808576040517f08c379a00000000000000000000000000000000000000000000000000000000081526004016117ff90613a60565b60405180910390fd5b600073ffffffffffffffffffffffffffffffffffffffff168273ffffffffffffffffffffffffffffffffffffffff161415611878576040517f08c379a000000000000000000000000000000000000000000000000000000000815260040161186f90613af2565b60405180910390fd5b611883838383612345565b61188e6000826115fb565b6001600360008573ffffffffffffffffffffffffffffffffffffffff1673ffffffffffffffffffffffffffffffffffffffff16815260200190815260200160002060008282546118de9190613b41565b925050819055506001600360008473ffffffffffffffffffffffffffffffffffffffff1673ffffffffffffffffffffffffffffffffffffffff16815260200190815260200160002060008282546119359190613b75565b92505081905550816002600083815260200190815260200160002060006101000a81548173ffffffffffffffffffffffffffffffffffffffff021916908373ffffffffffffffffffffffffffffffffffffffff160217905550808273ffffffffffffffffffffffffffffffffffffffff168473ffffffffffffffffffffffffffffffffffffffff167fddf252ad1be2c89b69c2b068fc378daa952ba7f163c4a11628f55a4df523b3ef60405160405180910390a46119f483838361234a565b505050565b8173ffffffffffffffffffffffffffffffffffffffff168373ffffffffffffffffffffffffffffffffffffffff161415611a68576040517f08c379a0000000000000000000000000000000000000000000000000000000008152600401611a5f90613c17565b60405180910390fd5b80600560008573ffffffffffffffffffffffffffffffffffffffff1673ffffffffffffffffffffffffffffffffffffffff16815260200190815260200160002060008473ffffffffffffffffffffffffffffffffffffffff1673ffffffffffffffffffffffffffffffffffffffff16815260200190815260200160002060006101000a81548160ff0219169083151502179055508173ffffffffffffffffffffffffffffffffffffffff168373ffffffffffffffffffffffffffffffffffffffff167f17307eab39ab6107e8899845ad3d59bd9653f200f220920489ca2b5937696c3183604051611b59919061290c565b60405180910390a3505050565b611b71848484611792565b611b7d8484848461234f565b611bbc576040517f08c379a0000000000000000000000000000000000000000000000000000000008152600401611bb390613ca9565b60405180910390fd5b50505050565b606060405180602001604052806000815250905090565b6060611be482611587565b611c23576040517f08c379a0000000000000000000000000000000000000000000000000000000008152600401611c1a90613d3b565b60405180910390fd5b6000611c2d611bc2565b90506000815111611c4d5760405180602001604052806000815250611c78565b80611c5784611e43565b604051602001611c6892919061350c565b6040516020818303038152906040525b915050919050565b600081600001549050919050565b60008060008084519050600092505b80821015611e38576000858381518110611cba57611cb9613d5b565b5b602001015160f81c60f81b9050608060f81b817effffffffffffffffffffffffffffffffffffffffffffffffffffffffffffff19161015611d0957600183611d029190613b75565b9250611e24565b60e060f81b817effffffffffffffffffffffffffffffffffffffffffffffffffffffffffffff19161015611d4b57600283611d449190613b75565b9250611e23565b60f060f81b817effffffffffffffffffffffffffffffffffffffffffffffffffffffffffffff19161015611d8d57600383611d869190613b75565b9250611e22565b60f8801b817effffffffffffffffffffffffffffffffffffffffffffffffffffffffffffff19161015611dce57600483611dc79190613b75565b9250611e21565b60fc60f81b817effffffffffffffffffffffffffffffffffffffffffffffffffffffffffffff19161015611e1057600583611e099190613b75565b9250611e20565b600683611e1d9190613b75565b92505b5b5b5b5b508280611e3090613d8a565b935050611c9d565b829350505050919050565b60606000821415611e8b576040518060400160405280600181526020017f30000000000000000000000000000000000000000000000000000000000000008152509050611f9f565b600082905060005b60008214611ebd578080611ea690613d8a565b915050600a82611eb69190613e02565b9150611e93565b60008167ffffffffffffffff811115611ed957611ed8612c17565b5b6040519080825280601f01601f191660200182016040528015611f0b5781602001600182028036833780820191505090505b5090505b60008514611f9857600182611f249190613b41565b9150600a85611f339190613e33565b6030611f3f9190613b75565b60f81b818381518110611f5557611f54613d5b565b5b60200101907effffffffffffffffffffffffffffffffffffffffffffffffffffffffffffff1916908160001a905350600a85611f919190613e02565b9450611f0f565b8093505050505b919050565b61203e838383604051602401611fbc93929190613e64565b6040516020818303038152906040527ff362ca59000000000000000000000000000000000000000000000000000000007bffffffffffffffffffffffffffffffffffffffffffffffffffffffff19166020820180517bffffffffffffffffffffffffffffffffffffffffffffffffffffffff838183161783525050505061231c565b505050565b6060600082519050600081141561206c57604051806020016040528060008152509150506121d6565b6000600360028361207d9190613b75565b6120879190613e02565b60046120939190613ea9565b905060006020826120a49190613b75565b67ffffffffffffffff8111156120bd576120bc612c17565b5b6040519080825280601f01601f1916602001820160405280156120ef5781602001600182028036833780820191505090505b50905060006040518060600160405280604081526020016141c3604091399050600181016020830160005b868110156121935760038101905062ffffff818a015116603f8160121c168401518060081b905060ff603f83600c1c1686015116810190508060081b905060ff603f8360061c1686015116810190508060081b905060ff603f831686015116810190508060e01b9050808452600484019350505061211a565b5060038606600181146121ad57600281146121bd576121c8565b613d3d60f01b60028303526121c8565b603d60f81b60018303525b508484525050819450505050505b919050565b612271816040516024016121ef91906129c0565b6040516020818303038152906040527f41304fac000000000000000000000000000000000000000000000000000000007bffffffffffffffffffffffffffffffffffffffffffffffffffffffff19166020820180517bffffffffffffffffffffffffffffffffffffffffffffffffffffffff838183161783525050505061231c565b50565b61228e8282604051806020016040528060008152506124d7565b5050565b61229b82611587565b6122da576040517f08c379a00000000000000000000000000000000000000000000000000000000081526004016122d190613f75565b60405180910390fd5b806006600084815260200190815260200160002090805190602001906123019291906127b5565b505050565b6001816000016000828254019250508190555050565b60008151905060006a636f6e736f6c652e6c6f679050602083016000808483855afa5050505050565b505050565b505050565b60006123708473ffffffffffffffffffffffffffffffffffffffff16612532565b156124ca578373ffffffffffffffffffffffffffffffffffffffff1663150b7a026123996115f3565b8786866040518563ffffffff1660e01b81526004016123bb9493929190613fea565b6020604051808303816000875af19250505080156123f757506040513d601f19601f820116820180604052508101906123f4919061404b565b60015b61247a573d8060008114612427576040519150601f19603f3d011682016040523d82523d6000602084013e61242c565b606091505b50600081511415612472576040517f08c379a000000000000000000000000000000000000000000000000000000000815260040161246990613ca9565b60405180910390fd5b805181602001fd5b63150b7a0260e01b7bffffffffffffffffffffffffffffffffffffffffffffffffffffffff1916817bffffffffffffffffffffffffffffffffffffffffffffffffffffffff1916149150506124cf565b600190505b949350505050565b6124e18383612555565b6124ee600084848461234f565b61252d576040517f08c379a000000000000000000000000000000000000000000000000000000000815260040161252490613ca9565b60405180910390fd5b505050565b6000808273ffffffffffffffffffffffffffffffffffffffff163b119050919050565b600073ffffffffffffffffffffffffffffffffffffffff168273ffffffffffffffffffffffffffffffffffffffff1614156125c5576040517f08c379a00000000000000000000000000000000000000000000000000000000081526004016125bc906140c4565b60405180910390fd5b6125ce81611587565b1561260e576040517f08c379a000000000000000000000000000000000000000000000000000000000815260040161260590614130565b60405180910390fd5b61261a60008383612345565b6001600360008473ffffffffffffffffffffffffffffffffffffffff1673ffffffffffffffffffffffffffffffffffffffff168152602001908152602001600020600082825461266a9190613b75565b92505081905550816002600083815260200190815260200160002060006101000a81548173ffffffffffffffffffffffffffffffffffffffff021916908373ffffffffffffffffffffffffffffffffffffffff160217905550808273ffffffffffffffffffffffffffffffffffffffff16600073ffffffffffffffffffffffffffffffffffffffff167fddf252ad1be2c89b69c2b068fc378daa952ba7f163c4a11628f55a4df523b3ef60405160405180910390a461272b6000838361234a565b5050565b82805461273b90613062565b90600052602060002090601f01602090048101928261275d57600085556127a4565b82601f1061277657803560ff19168380011785556127a4565b828001600101855582156127a4579182015b828111156127a3578235825591602001919060010190612788565b5b5090506127b1919061283b565b5090565b8280546127c190613062565b90600052602060002090601f0160209004810192826127e3576000855561282a565b82601f106127fc57805160ff191683800117855561282a565b8280016001018555821561282a579182015b8281111561282957825182559160200191906001019061280e565b5b509050612837919061283b565b5090565b5b8082111561285457600081600090555060010161283c565b5090565b6000604051905090565b600080fd5b600080fd5b60007fffffffff0000000000000000000000000000000000000000000000000000000082169050919050565b6128a18161286c565b81146128ac57600080fd5b50565b6000813590506128be81612898565b92915050565b6000602082840312156128da576128d9612862565b5b60006128e8848285016128af565b91505092915050565b60008115159050919050565b612906816128f1565b82525050565b600060208201905061292160008301846128fd565b92915050565b600081519050919050565b600082825260208201905092915050565b60005b83811015612961578082015181840152602081019050612946565b83811115612970576000848401525b50505050565b6000601f19601f8301169050919050565b600061299282612927565b61299c8185612932565b93506129ac818560208601612943565b6129b581612976565b840191505092915050565b600060208201905081810360008301526129da8184612987565b905092915050565b6000819050919050565b6129f5816129e2565b8114612a0057600080fd5b50565b600081359050612a12816129ec565b92915050565b600060208284031215612a2e57612a2d612862565b5b6000612a3c84828501612a03565b91505092915050565b600073ffffffffffffffffffffffffffffffffffffffff82169050919050565b6000612a7082612a45565b9050919050565b612a8081612a65565b82525050565b6000602082019050612a9b6000830184612a77565b92915050565b612aaa81612a65565b8114612ab557600080fd5b50565b600081359050612ac781612aa1565b92915050565b60008060408385031215612ae457612ae3612862565b5b6000612af285828601612ab8565b9250506020612b0385828601612a03565b9150509250929050565b600080fd5b600080fd5b600080fd5b60008083601f840112612b3257612b31612b0d565b5b8235905067ffffffffffffffff811115612b4f57612b4e612b12565b5b602083019150836001820283011115612b6b57612b6a612b17565b5b9250929050565b60008060208385031215612b8957612b88612862565b5b600083013567ffffffffffffffff811115612ba757612ba6612867565b5b612bb385828601612b1c565b92509250509250929050565b600080600060608486031215612bd857612bd7612862565b5b6000612be686828701612ab8565b9350506020612bf786828701612ab8565b9250506040612c0886828701612a03565b9150509250925092565b600080fd5b7f4e487b7100000000000000000000000000000000000000000000000000000000600052604160045260246000fd5b612c4f82612976565b810181811067ffffffffffffffff82111715612c6e57612c6d612c17565b5b80604052505050565b6000612c81612858565b9050612c8d8282612c46565b919050565b600067ffffffffffffffff821115612cad57612cac612c17565b5b612cb682612976565b9050602081019050919050565b82818337600083830152505050565b6000612ce5612ce084612c92565b612c77565b905082815260208101848484011115612d0157612d00612c12565b5b612d0c848285612cc3565b509392505050565b600082601f830112612d2957612d28612b0d565b5b8135612d39848260208601612cd2565b91505092915050565b600060208284031215612d5857612d57612862565b5b600082013567ffffffffffffffff811115612d7657612d75612867565b5b612d8284828501612d14565b91505092915050565b600060208284031215612da157612da0612862565b5b6000612daf84828501612ab8565b91505092915050565b612dc1816129e2565b82525050565b6000602082019050612ddc6000830184612db8565b92915050565b612deb816128f1565b8114612df657600080fd5b50565b600081359050612e0881612de2565b92915050565b60008060408385031215612e2557612e24612862565b5b6000612e3385828601612ab8565b9250506020612e4485828601612df9565b9150509250929050565b600067ffffffffffffffff821115612e6957612e68612c17565b5b612e7282612976565b9050602081019050919050565b6000612e92612e8d84612e4e565b612c77565b905082815260208101848484011115612eae57612ead612c12565b5b612eb9848285612cc3565b509392505050565b600082601f830112612ed657612ed5612b0d565b5b8135612ee6848260208601612e7f565b91505092915050565b60008060008060808587031215612f0957612f08612862565b5b6000612f1787828801612ab8565b9450506020612f2887828801612ab8565b9350506040612f3987828801612a03565b925050606085013567ffffffffffffffff811115612f5a57612f59612867565b5b612f6687828801612ec1565b91505092959194509250565b60008060008060408587031215612f8c57612f8b612862565b5b600085013567ffffffffffffffff811115612faa57612fa9612867565b5b612fb687828801612b1c565b9450945050602085013567ffffffffffffffff811115612fd957612fd8612867565b5b612fe587828801612b1c565b925092505092959194509250565b6000806040838503121561300a57613009612862565b5b600061301885828601612ab8565b925050602061302985828601612ab8565b9150509250929050565b7f4e487b7100000000000000000000000000000000000000000000000000000000600052602260045260246000fd5b6000600282049050600182168061307a57607f821691505b6020821081141561308e5761308d613033565b5b50919050565b7f4552433732313a20617070726f76656420717565727920666f72206e6f6e657860008201527f697374656e7420746f6b656e0000000000000000000000000000000000000000602082015250565b60006130f0602c83612932565b91506130fb82613094565b604082019050919050565b6000602082019050818103600083015261311f816130e3565b9050919050565b7f4552433732313a20617070726f76616c20746f2063757272656e74206f776e6560008201527f7200000000000000000000000000000000000000000000000000000000000000602082015250565b6000613182602183612932565b915061318d82613126565b604082019050919050565b600060208201905081810360008301526131b181613175565b9050919050565b7f4552433732313a20617070726f76652063616c6c6572206973206e6f74206f7760008201527f6e6572206e6f7220617070726f76656420666f7220616c6c0000000000000000602082015250565b6000613214603883612932565b915061321f826131b8565b604082019050919050565b6000602082019050818103600083015261324381613207565b9050919050565b600081905092915050565b6000613261838561324a565b935061326e838584612cc3565b82840190509392505050565b6000613287828486613255565b91508190509392505050565b7f4552433732313a207472616e736665722063616c6c6572206973206e6f74206f60008201527f776e6572206e6f7220617070726f766564000000000000000000000000000000602082015250565b60006132ef603183612932565b91506132fa82613293565b604082019050919050565b6000602082019050818103600083015261331e816132e2565b9050919050565b7f4552433732313a206f776e657220717565727920666f72206e6f6e657869737460008201527f656e7420746f6b656e0000000000000000000000000000000000000000000000602082015250565b6000613381602983612932565b915061338c82613325565b604082019050919050565b600060208201905081810360008301526133b081613374565b9050919050565b7f4552433732313a2062616c616e636520717565727920666f7220746865207a6560008201527f726f206164647265737300000000000000000000000000000000000000000000602082015250565b6000613413602a83612932565b915061341e826133b7565b604082019050919050565b6000602082019050818103600083015261344281613406565b9050919050565b7f45524337323155524953746f726167653a2055524920717565727920666f722060008201527f6e6f6e6578697374656e7420746f6b656e000000000000000000000000000000602082015250565b60006134a5603183612932565b91506134b082613449565b604082019050919050565b600060208201905081810360008301526134d481613498565b9050919050565b60006134e682612927565b6134f0818561324a565b9350613500818560208601612943565b80840191505092915050565b600061351882856134db565b915061352482846134db565b91508190509392505050565b7f4e6f7420656e6f756768204d6174696320706169640000000000000000000000600082015250565b6000613566601583612932565b915061357182613530565b602082019050919050565b6000602082019050818103600083015261359581613559565b9050919050565b7f2e00000000000000000000000000000000000000000000000000000000000000600082015250565b60006135d260018361324a565b91506135dd8261359c565b600182019050919050565b60008190508160005260206000209050919050565b6000815461360a81613062565b613614818661324a565b9450600182166000811461362f576001811461364057613673565b60ff19831686528186019350613673565b613649856135e8565b60005b8381101561366b5781548189015260018201915060208101905061364c565b838801955050505b50505092915050565b6000613689828587613255565b9150613694826135c5565b91506136a082846135fd565b9150819050949350505050565b60006136b982866135fd565b91506136c582856134db565b91506136d182846135fd565b9150819050949350505050565b7f7b226e616d65223a202200000000000000000000000000000000000000000000600082015250565b6000613714600a8361324a565b915061371f826136de565b600a82019050919050565b7f222c20226465736372697074696f6e223a20224120646f6d61696e206f6e207460008201527f6865204372656564206e616d652073657276696365222c2022696d616765223a60208201527f2022646174613a696d6167652f7376672b786d6c3b6261736536342c00000000604082015250565b60006137ac605c8361324a565b91506137b78261372a565b605c82019050919050565b7f222c226c656e677468223a220000000000000000000000000000000000000000600082015250565b60006137f8600c8361324a565b9150613803826137c2565b600c82019050919050565b7f227d000000000000000000000000000000000000000000000000000000000000600082015250565b600061384460028361324a565b915061384f8261380e565b600282019050919050565b600061386582613707565b915061387182866134db565b915061387c8261379f565b915061388882856134db565b9150613893826137eb565b915061389f82846134db565b91506138aa82613837565b9150819050949350505050565b7f646174613a6170706c69636174696f6e2f6a736f6e3b6261736536342c000000600082015250565b60006138ed601d8361324a565b91506138f8826138b7565b601d82019050919050565b600061390e826138e0565b915061391a82846134db565b915081905092915050565b6000604082019050818103600083015261393f8185612987565b905081810360208301526139538184612987565b90509392505050565b7f4552433732313a206f70657261746f7220717565727920666f72206e6f6e657860008201527f697374656e7420746f6b656e0000000000000000000000000000000000000000602082015250565b60006139b8602c83612932565b91506139c38261395c565b604082019050919050565b600060208201905081810360008301526139e7816139ab565b9050919050565b7f4552433732313a207472616e736665722066726f6d20696e636f72726563742060008201527f6f776e6572000000000000000000000000000000000000000000000000000000602082015250565b6000613a4a602583612932565b9150613a55826139ee565b604082019050919050565b60006020820190508181036000830152613a7981613a3d565b9050919050565b7f4552433732313a207472616e7366657220746f20746865207a65726f2061646460008201527f7265737300000000000000000000000000000000000000000000000000000000602082015250565b6000613adc602483612932565b9150613ae782613a80565b604082019050919050565b60006020820190508181036000830152613b0b81613acf565b9050919050565b7f4e487b7100000000000000000000000000000000000000000000000000000000600052601160045260246000fd5b6000613b4c826129e2565b9150613b57836129e2565b925082821015613b6a57613b69613b12565b5b828203905092915050565b6000613b80826129e2565b9150613b8b836129e2565b9250827fffffffffffffffffffffffffffffffffffffffffffffffffffffffffffffffff03821115613bc057613bbf613b12565b5b828201905092915050565b7f4552433732313a20617070726f766520746f2063616c6c657200000000000000600082015250565b6000613c01601983612932565b9150613c0c82613bcb565b602082019050919050565b60006020820190508181036000830152613c3081613bf4565b9050919050565b7f4552433732313a207472616e7366657220746f206e6f6e20455243373231526560008201527f63656976657220696d706c656d656e7465720000000000000000000000000000602082015250565b6000613c93603283612932565b9150613c9e82613c37565b604082019050919050565b60006020820190508181036000830152613cc281613c86565b9050919050565b7f4552433732314d657461646174613a2055524920717565727920666f72206e6f60008201527f6e6578697374656e7420746f6b656e0000000000000000000000000000000000602082015250565b6000613d25602f83612932565b9150613d3082613cc9565b604082019050919050565b60006020820190508181036000830152613d5481613d18565b9050919050565b7f4e487b7100000000000000000000000000000000000000000000000000000000600052603260045260246000fd5b6000613d95826129e2565b91507fffffffffffffffffffffffffffffffffffffffffffffffffffffffffffffffff821415613dc857613dc7613b12565b5b600182019050919050565b7f4e487b7100000000000000000000000000000000000000000000000000000000600052601260045260246000fd5b6000613e0d826129e2565b9150613e18836129e2565b925082613e2857613e27613dd3565b5b828204905092915050565b6000613e3e826129e2565b9150613e49836129e2565b925082613e5957613e58613dd3565b5b828206905092915050565b60006060820190508181036000830152613e7e8186612987565b90508181036020830152613e928185612987565b9050613ea16040830184612db8565b949350505050565b6000613eb4826129e2565b9150613ebf836129e2565b9250817fffffffffffffffffffffffffffffffffffffffffffffffffffffffffffffffff0483118215151615613ef857613ef7613b12565b5b828202905092915050565b7f45524337323155524953746f726167653a2055524920736574206f66206e6f6e60008201527f6578697374656e7420746f6b656e000000000000000000000000000000000000602082015250565b6000613f5f602e83612932565b9150613f6a82613f03565b604082019050919050565b60006020820190508181036000830152613f8e81613f52565b9050919050565b600081519050919050565b600082825260208201905092915050565b6000613fbc82613f95565b613fc68185613fa0565b9350613fd6818560208601612943565b613fdf81612976565b840191505092915050565b6000608082019050613fff6000830187612a77565b61400c6020830186612a77565b6140196040830185612db8565b818103606083015261402b8184613fb1565b905095945050505050565b60008151905061404581612898565b92915050565b60006020828403121561406157614060612862565b5b600061406f84828501614036565b91505092915050565b7f4552433732313a206d696e7420746f20746865207a65726f2061646472657373600082015250565b60006140ae602083612932565b91506140b982614078565b602082019050919050565b600060208201905081810360008301526140dd816140a1565b9050919050565b7f4552433732313a20746f6b656e20616c7265616479206d696e74656400000000600082015250565b600061411a601c83612932565b9150614125826140e4565b602082019050919050565b600060208201905081810360008301526141498161410d565b905091905056fe0a2d2d2d2d2d2d2d2d2d2d2d2d2d2d2d2d2d2d2d2d2d2d2d2d2d2d2d2d2d2d2d2d2d2d2d2d2d2d2d2d2d2d2d2d2d2d2d2d2d2d2d2d2d2d2d2d2d2d2d2d2d2d2d2d2d2d2d2d2d2d2d2d2d2d2d2d2d2d2d2d2d2d2d2d2d2d2d2d2d2d2d2d2d2d2d2d2d2d2d2d2d2d2d2d2d2d2d2d2d2d2d2d0a4142434445464748494a4b4c4d4e4f505152535455565758595a6162636465666768696a6b6c6d6e6f707172737475767778797a303132333435363738392b2f5265676973746572696e67202573206f6e2074686520636f6e7472616374207769746820746f6b656e4944202564a2646970667358221220bb8ef194450c400d8b48558c502ca5f9c490d537f17ec87f43f9604921bad90f64736f6c634300080a00333c73766720786d6c6e733d22687474703a2f2f7777772e77332e6f72672f323030302f737667222077696474683d2232373022206865696768743d22323730222066696c6c3d226e6f6e65223e3c706174682066696c6c3d2275726c282342292220643d224d302030683237307632373048307a222f3e3c646566733e3c66696c7465722069643d22412220636f6c6f722d696e746572706f6c6174696f6e2d66696c746572733d2273524742222066696c746572556e6974733d227573657253706163654f6e55736522206865696768743d22323730222077696474683d22323730223e3c666544726f70536861646f772064783d2230222064793d22312220737464446576696174696f6e3d22322220666c6f6f642d6f7061636974793d222e323235222077696474683d223230302522206865696768743d2232303025222f3e3c2f66696c7465723e3c2f646566733e3c7061746820643d224d37322e3836332034322e393439632d2e3636382d2e3338372d312e3432362d2e35392d322e3139372d2e3539732d312e3532392e3230342d322e3139372e35396c2d31302e30383120362e3033322d362e383520332e3933342d31302e30383120362e303332632d2e3636382e3338372d312e3432362e35392d322e3139372e3539732d312e3532392d2e3230342d322e3139372d2e35396c2d382e3031332d342e37323161342e353220342e35322030203020312d312e3538392d312e363136632d2e3338342d2e3636352d2e3539342d312e3431382d2e3630382d322e313837762d392e3331632d2e3031332d2e3737352e3138352d312e3533382e3537322d322e32303861342e323520342e323520302030203120312e3632352d312e3539356c372e3838342d342e3539632e3636382d2e33383720312e3432362d2e353920322e3139372d2e353973312e3532392e32303420322e3139372e35396c372e38383420342e353961342e353220342e353220302030203120312e35383920312e363136632e3338342e3636352e35393420312e3431382e36303820322e31383776362e3033326c362e38352d342e303635762d362e303332632e3031332d2e3737352d2e3138352d312e3533382d2e3537322d322e32303861342e323520342e32352030203020302d312e3632352d312e3539354c34312e3435362032342e3539632d2e3636382d2e3338372d312e3432362d2e35392d322e3139372d2e3539732d312e3532392e3230342d322e3139372e35396c2d31342e38363420382e36353561342e323520342e32352030203020302d312e36323520312e353935632d2e3338372e36372d2e35383520312e3433342d2e35373220322e3230387631372e343431632d2e3031332e3737352e31383520312e3533382e35373220322e32303861342e323520342e323520302030203020312e36323520312e3539356c31342e38363420382e363535632e3636382e33383720312e3432362e353920322e3139372e353973312e3532392d2e32303420322e3139372d2e35396c31302e3038312d352e39303120362e38352d342e3036352031302e3038312d352e393031632e3636382d2e33383720312e3432362d2e353920322e3139372d2e353973312e3532392e32303420322e3139372e35396c372e38383420342e353961342e353220342e353220302030203120312e35383920312e363136632e3338342e3636352e35393420312e3431382e36303820322e31383776392e333131632e3031332e3737352d2e31383520312e3533382d2e35373220322e32303861342e323520342e32352030203020312d312e36323520312e3539356c2d372e38383420342e373231632d2e3636382e3338372d312e3432362e35392d322e3139372e3539732d312e3532392d2e3230342d322e3139372d2e35396c2d372e3838342d342e353961342e353220342e35322030203020312d312e3538392d312e363136632d2e3338352d2e3636352d2e3539342d312e3431382d2e3630382d322e313837762d362e3033326c2d362e383520342e30363576362e303332632d2e3031332e3737352e31383520312e3533382e35373220322e32303861342e323520342e323520302030203020312e36323520312e3539356c31342e38363420382e363535632e3636382e33383720312e3432362e353920322e3139372e353973312e3532392d2e32303420322e3139372d2e35396c31342e3836342d382e363535632e3635372d2e33393420312e3230342d2e393520312e3538392d312e363136732e3539342d312e3431382e3630392d322e3138375635352e353338632e3031332d2e3737352d2e3138352d312e3533382d2e3537322d322e32303861342e323520342e32352030203020302d312e3632352d312e3539356c2d31342e3939332d382e3738367a222066696c6c3d2223666666222f3e3c646566733e3c6c696e6561724772616469656e742069643d2242222078313d2230222079313d2230222078323d22323730222079323d2232373022206772616469656e74556e6974733d227573657253706163654f6e557365223e3c73746f702073746f702d636f6c6f723d2223636235656565222f3e3c73746f70206f66667365743d2231222073746f702d636f6c6f723d2223306364376534222073746f702d6f7061636974793d222e3939222f3e3c2f6c696e6561724772616469656e743e3c2f646566733e3c7465787420783d2233322e352220793d223233312220666f6e742d73697a653d223237222066696c6c3d2223666666222066696c7465723d2275726c282341292220666f6e742d66616d696c793d22506c7573204a616b617274612053616e732c44656a6156752053616e732c4e6f746f20436f6c6f7220456d6f6a692c4170706c6520436f6c6f7220456d6f6a692c73616e732d73657269662220666f6e742d7765696768743d22626f6c64223e",
  "linkReferences": {},
  "deployedLinkReferences": {}
}